S01700004156524669726D77617265546573742E7372656347
S113000055C1000072C1000070C100006EC1000043
S11300106CC100006AC1000068C1000066C1000034
S113002064C1000062C1000060C100005EC1000044
S11300305CC100005AC1000058C1000056C1000054
S113004054C1000070C2000050C100004EC1000045
S11300504CC100008DC2000048C1000046C1000030
S113006044C1000042C1000040C100003EC1000084
S11300703CC100003AC1000038C1000036C1000094
S113008034C1000032C1000030C100002EC10000A4
S11300902CC100002AC1000028C1000026C10000B4
S11300A024C1000022C1000020C100001EC10000C4
S11300B01CC100001AC1000018C1000016C10000D4
S11300C014C1000012C1000010C100000EC10000E4
S11300D00CC100000AC1000008C1000006C10000F4
S11300E004C10000000000000000005F00000000E8
S11300F0070007147F147F14242A7F2A122313086D
S1130100646236495522500000050300001C224158
S1130110000041221C0014083E081408083E080888
S113012000000050300808080808000030300020A3
S1130130100804023E5149453E00427F400040669B
S113014051494622414949361814127F1027454522
S113015045393C4A49493101710905033649494940
S113016036264949493E0000333300000000563624
S113017000081422000014141400002214080002C1
S113018001510906324949513E7E0909097E7F49D8
S11301904949363E414141227F4141221C7F494920
S11301A049417F090909013E4149493A7F08080844
S11301B07F41417F41412040413F017F181422414A
S11301C07F404040407F020C027F7F0204187F3E44
S11301D04141413E7F090909063E415121DE7F1913
S11301E0294946464949493101017F01013F4040BF
S11301F0403F1F3040301F3F4038403F63140814D5
S11302006303047804036151494543007F4141007D
S113021002040810200041417F0010080408100067
S113022040404040000305000020545454787F4867
S11302304444383844444420384444487F3854546F
S11302405418087E09010218A4A4A47C7F0804049D
S11302507800447D4000004080847D007F10284465
S113026000417F40007C041804787C08040478383A
S113027044444438FC1824241818242418FC7C080A
S11302800404084854545420043F4440203C404053
S1130290207C1C2040201C3C4030403C442810283A
S11302A0441CA0A0A07C4464544C440011241FBEF0
S11302B0CFEFD1E2DEBFCDBF00E00CBF12E0A0E083
S11302C0B2E0E2E1FBE000E00BBF02C007900D9258
S11302D0A831B107D9F722E0A8E1B2E001C01D922C
S11302E0AF32B207E1F7FDD112C48ACE20E030E08C
S11302F08091BC0090E0880F892F881F990B892B6F
S113030031F42F5F3F4F243D89E4380789F708957E
S11303108EBD0000000000000DB407FEFDCF0000FC
S1130320000000008EB50895DF92EF92FF920F93C4
S11303301F93CF93DF93D82E062FCCEBD0E084EA23
S11303408883D4DF8BEBE82EF12C8AE1F7018083DC
S113035014E81883CBDFF701D0821883C7DFF701D5
S113036000831883C3DF84E98883DF91CF911F91D1
S11303700F91FF90EF90DF9008950F931F93CF9309
S1130380DF93C0912902D0912A02988121E030E0C4
S113039089010090280202C0000F111F0A94E2F79D
S11303A0402F40959423988300000000988100908A
S11303B0270202C0220F331F0A94E2F7292B288355
S11303C000000000A5DF8881082B088300000000DE
S11303D0DF91CF911F910F9108950F931F93CF93A6
S11303E0DF93C0912902D0912A02988121E030E064
S11303F089010090280202C0000F111F0A94E2F73D
S1130400402F409594239883000000009881009029
S1130410270202C0220F331F0A94E2F720952923F2
S113042028830000000074DF8881082B0883000003
S11304300000DF91CF911F910F910895FF920F93C8
S11304401F93CF93DF93EC01162F80E2C6DF80E881
S1130450C4DF812F8064C1DF85E0F82E8881882382
S1130460B9F000E010E0888190E08097F89EF001F8
S1130470F99EF00D1124E00FF11FEC51FF4F849110
S11304807CDF0F5F1F4F0530110569F72196E6CF1A
S1130490DF91CF911F910F91FF900895FF920F93D9
S11304A01F93CF93DF93F62E072F142FE09125028D
S11304B0F0912602908121E030E00090240202C0F5
S11304C0220F331F0A94E2F720952923208395E312
S11304D09A95F1F700001CDFCF2DD02FCE01810FAC
S11304E0911D8C01C017D10721F0888111DF8993F8
S11304F0F9CFE0912502F0912602208181E090E07D
S11305000090240202C0880F991F0A94E2F7822BFC
S1130510808395E39A95F1F70000DF91CF911F91C5
S11305200F91FF9008951F920F920FB60F9211240E
S11305308F939F93AF93BF9380912B0290912C0242
S1130540A0912D02B0912E020196A11DB11D8093A0
S11305502B0290932C02A0932D02B0932E02BF91F4
S1130560AF919F918F910F900FBE0F901F90189590
S11305701F920F920FB60F9211240BB60F922F9366
S11305803F934F935F936F937F938F939F93AF9317
S1130590BF93EF93FF9392B184E0982792B998B1F7
S11305A0892788B98091190290911A02A0911B029F
S11305B0B0911C020196A11DB11D80931902909364
S11305C01A02A0931B02B0931C028091180281307E
S11305D009F118F08230D9F171C06091190270915B
S11305E01A0280911B0290911C022AE030E040E044
S11305F050E06BD2672B682B692B31F487B58532B9
S113060018F087B5815039C087B5843209F056C0D7
S113061081E01AC080911F0290912002A0912102D2
S1130620B09122024091190250911A0260911B026A
S113063070911C0288549340A109B10948175907C5
S11306406A077B07D8F182E08093180237C0609173
S1130650190270911A0280911B0290911C022AE0E7
S113066030E040E050E031D2672B682B692B39F43D
S113067087B5883720F487B58F5F87BD1FC087B5DE
S11306808837E1F480916E008D7F80936E0014981A
S113069044981092190210921A0210921B0210929E
S11306A01C0210921F02109220021092210210923A
S11306B022021092180281E080932302FF91EF91AD
S11306C0BF91AF919F918F917F916F915F914F9166
S11306D03F912F910F900BBE0F900FBE0F901F9064
S11306E01895CF93DF93CDB7DEB727970FB6F8945D
S11306F0DEBF0FBECDBF8CB58D7F8CBD8CB5816048
S11307008CBD84B1876084B98CB580658CBD289A12
S11307101092B90080E28093B80084E88093BC0012
S11307208BB183608BB985E0F82EF092270287E0C5
S113073080931D0296E0E92EE09228028BE091E07E
S113074090932A028093290280910A01806E8093FB
S11307500A0180910B01806480930B01000000006A
S113076080910B018F7780930B018FE19EE40197B9
S1130770F1F700C00000E0912902F0912A022081E3
S113078001E010E0C80100901D0202C0880F991F0B
S11307900A94E2F7822B8083EFE3FCE93197F1F7C7
S11307A000C0000083E219DE85E017DE83E115DE78
S11307B08CEB13DE82E211DE8CE00FDE81E20DDED3
S11307C081EC0BDE60E085E092E038DE61E08BE0F6
S11307D092E034DE81B1856181B987B1856187B9E1
S11307E087B1876087B981B1866081B981B187603B
S11307F081B987B1866087B982E084BD84E085BD14
S113080088E787BD809181008B608093810080910F
S11308106F00826080936F0089EF90E0909389006D
S11308208093880084E390E09093260280932502CD
S113083081E08093240283B3836083BBA098F5E3B3
S1130840FA95F1F70000E0912502F09126028081EB
S11308500090240202C0000F111F0A94E2F7082B33
S1130860008325E32A95F1F700008FEF9BE7E2E987
S113087081509040E040E1F700C0000010921E0259
S11308808E010F5F1F4FF8012F2D11922A95E9F762
S11308908CE08F8341E0BE01695F7F4F80E2FEDD23
S11308A08FE38F8341E0BE01695F7F4F81E2F6DD14
S11308B0FF8241E0BE01695F7F4F83E2EFDD8FE598
S11308C08F8341E0BE01695F7F4F84E2E7DD8CE600
S11308D08F8341E0BE01695F7F4F85E2DFDDEF82F8
S11308E041E0BE01695F7F4F86E2D8DD80E78E83F9
S11308F041E0BE016A5F7F4F87E2D0DD20E0E22E57
S113090022E0F22E580135E0C32E32E0D32ED80176
S1130910F70181918D93CE16DF06D9F780911E02DF
S1130920865F45E0B8018062B9DDF70181917F01FE
S1130930F50181935F01CE14DF04B9F745E0B801F6
S113094080E3ACDD81E090E000901E0202C0880FDD
S1130950991F0A94E2F78F8341E0BE01695F7F4FDC
S11309608CE39CDD84E08F8341E0BE01695F7F4FAF
S11309708DE394DD40E060E070E081EE8FDD40E0E7
S113098060E070E082EE8ADD41E0BE01695F7F4F86
S113099080E084DD8F8182608F8341E0BE01695FE6
S11309A07F4F80E27BDD8FE39CE90197F1F700C084
S11309B0000041E0B80186E071DD41E0B80186E263
S11309C06DDD65EC89E0B0DC61E48AE0ADDC61E01A
S11309D08BE0AADC789480E200DD80E8FEDC80E431
S11309E0FCDC08EF11E080E0C8DC01501109D9F704
S11309F010922302149A449A1098409885E49AED30
S1130A00A0E0B0E080931F0290932002A093210203
S1130A10B093220280916E00826080936E00809178
S1130A2023028130E1F760E081E192E007DD10927A
S1130A302302149A449A109A409A85E49AEDA0E00D
S1130A40B0E080931F0290932002A0932102B09300
S1130A50220280916E00826080936E008091230256
S1130A608130E1F710922302149A449A1098409A24
S1130A708BED9AE0A0E0B0E080931F0290932002F7
S1130A80A0932102B093220280916E008260809331
S1130A906E00809123028130E1F710922302149AB0
S1130AA0449A109A40988BED9AE0A0E0B0E08093CD
S1130AB01F0290932002A0932102B09322028091FE
S1130AC06E00826080936E00FFCFA1E21A2EAA1BF3
S1130AD0BB1BFD010DC0AA1FBB1FEE1FFF1FA217EA
S1130AE0B307E407F50720F0A21BB30BE40BF50BE7
S1130AF0661F771F881F991F1A9469F76095709570
S1130B00809590959B01AC01BD01CF010895F894A7
S1050B10FFCF11
S1130B12000000000148454C4C4F00574F524C44D2
S10B0B22006D6F7665640000AC
S9030000FC
