:1000000055C1000072C1000070C100006EC1000047
:100010006CC100006AC1000068C1000066C1000038
:1000200064C1000062C1000060C100005EC1000048
:100030005CC100005AC1000058C1000056C1000058
:1000400054C1000052C1000050C100004EC1000068
:100050004CC10000F0C1000048C1000046C10000D2
:1000600044C1000042C1000040C100003EC1000088
:100070003CC100003AC1000038C1000036C1000098
:1000800034C1000032C1000030C100002EC10000A8
:100090002CC100002AC1000028C1000026C10000B8
:1000A00024C1000022C1000020C100001EC10000C8
:1000B0001CC100001AC1000018C1000016C10000D8
:1000C00014C1000012C1000010C100000EC10000E8
:1000D0000CC100000AC1000008C1000006C10000F8
:1000E00004C10000000000000000005F00000000EC
:1000F000070007147F147F14242A7F2A1223130871
:10010000646236495522500000050300001C22415C
:10011000000041221C0014083E081408083E08088C
:1001200000000050300808080808000030300020A7
:10013000100804023E5149453E00427F400040669F
:1001400051494622414949361814127F1027454526
:1001500045393C4A49493101710905033649494944
:1001600036264949493E0000333300000000563628
:1001700000081422000014141400002214080002C5
:1001800001510906324949513E7E0909097E7F49DC
:100190004949363E414141227F4141221C7F494924
:1001A00049417F090909013E4149493A7F08080848
:1001B0007F41417F41412040413F017F181422414E
:1001C0007F404040407F020C027F7F0204187F3E48
:1001D0004141413E7F090909063E415121DE7F1917
:1001E000294946464949493101017F01013F4040C3
:1001F000403F1F3040301F3F4038403F63140814D9
:100200006303047804036151494543007F41410081
:1002100002040810200041417F001008040810006B
:1002200040404040000305000020545454787F486B
:100230004444383844444420384444487F38545473
:100240005418087E09010218A4A4A47C7F080404A1
:100250007800447D4000004080847D007F10284469
:1002600000417F40007C041804787C08040478383E
:1002700044444438FC1824241818242418FC7C080E
:100280000404084854545420043F4440203C404057
:10029000207C1C2040201C3C4030403C442810283E
:1002A000441CA0A0A07C4464544C440011241FBEF4
:1002B000CFEFD1E2DEBFCDBF00E00CBF12E0A0E087
:1002C000B2E0E6E1F6E000E00BBF02C007900D925D
:1002D000AC30B107D9F722E0ACE0B2E001C01D922A
:1002E000A231B207E1F7E1D094C18ACE8EBD000001
:1002F000000000000DB407FEFDCF0000000000006C
:100300008EB508950F931F93CF93DF93C091100282
:10031000D0911102988121E030E0890100900F0214
:1003200002C0000F111F0A94E2F7402F409594235A
:10033000988300000000988100900E0202C0220FF6
:10034000331F0A94E2F72095292328830000000038
:10035000CDDF8881082B088300000000DF91CF915A
:100360001F910F9108959F92AF92BF92CF92DF920B
:10037000EF92FF920F931F93CF93DF93EC01162F11
:1003800080E2C0DF80E8BEDF812F8064BBDF85E0D4
:10039000982EEE24E394F12C8881882309F43FC041
:1003A00000E010E0888190E08097989EF001999E8F
:1003B000F00D1124E00FF11FEC51FF4F8491C0901C
:1003C0001002D0901102F6019081570100900F02A7
:1003D00002C0AA0CBB1C0A94E2F72A2D2095922396
:1003E0009083000000009081970100900E0202C0EF
:1003F000220F331F0A94E2F7292B2083000000000C
:1004000075DFF6018081A82AA082000000000F5F3E
:100410001F4F0530110509F0C5CF2196BDCFDF91E3
:10042000CF911F910F91FF90EF90DF90CF90BF90F1
:10043000AF909F9008951F920F920FB60F921124C4
:100440008F939F9380910D02823089F040F488232E
:10045000C1F08130C1F4149A449A109810C08330CE
:1004600059F0843081F4149A449A109A03C0149A73
:10047000449A1098409A07C0149A449A109A409847
:1004800002C01498449880910D02882339F092B1EB
:1004900084E0982792B998B1892788B99F918F9164
:1004A0000F900FBE0F901F9018958CB58D7F8CBD4F
:1004B0008CB581608CBD84B1876084B98CB5806552
:1004C0008CBD289A85E080930E0287E080930C0211
:1004D00086E080930F028BE091E09093110280936D
:1004E000100280910A01806E80930A0180910B01B5
:1004F000806480930B010000000080910B018F77D6
:1005000080930B018FE19EE40197F1F700C000009A
:10051000E0911002F0911102208181E090E00090C2
:100520000C0202C0880F991F0A94E2F7822B808385
:100530008FE39CE90197F1F700C0000083E2E2DE5F
:1005400085E0E0DE83E1DEDE8CEBDCDE82E2DADE1B
:100550008CE0D8DE81E2D6DE81ECD4DE60E080E0A3
:1005600092E001DF61E086E092E0FDDE81B185612D
:1005700081B987B1856187B987B1876087B981B152
:10058000866081B981B1876081B987B1866087B99A
:1005900082E084BD83E085BD80916E00826080939F
:1005A0006E008EEA87BD1498449810920D027894DC
:1005B00031E022E093E084E030930D024FEF53E20C
:1005C00064EF415050406040E1F700C000002093CC
:1005D0000D024FEF53E264EF415050406040E1F7AD
:1005E00000C0000090930D024FEF53E264EF4150C2
:1005F00050406040E1F700C0000080930D024FEFD3
:1006000053E264EF415050406040E1F700C0000009
:06061000D3CFF894FFCFE8
:0C06160048454C4C4F00574F524C4400DC
:00000001FF
