:1000000055C1000072C1000070C100006EC1000047
:100010006CC100006AC1000068C1000066C1000038
:1000200064C1000062C1000060C100005EC1000048
:100030005CC100005AC1000058C1000056C1000058
:1000400054C1000052C1000050C100004EC1000068
:100050004CC10000E8C1000048C1000046C10000DA
:1000600044C1000042C1000040C100003EC1000088
:100070003CC100003AC1000038C1000036C1000098
:1000800034C1000032C1000030C100002EC10000A8
:100090002CC100002AC1000028C1000026C10000B8
:1000A00024C1000022C1000020C100001EC10000C8
:1000B0001CC100001AC1000018C1000016C10000D8
:1000C00014C1000012C1000010C100000EC10000E8
:1000D0000CC100000AC1000008C1000006C10000F8
:1000E00004C10000000000000000005F00000000EC
:1000F000070007147F147F14242A7F2A1223130871
:10010000646236495522500000050300001C22415C
:10011000000041221C0014083E081408083E08088C
:1001200000000050300808080808000030300020A7
:10013000100804023E5149453E00427F400040669F
:1001400051494622414949361814127F1027454526
:1001500045393C4A49493101710905033649494944
:1001600036264949493E0000333300000000563628
:1001700000081422000014141400002214080002C5
:1001800001510906324949513E7E0909097E7F49DC
:100190004949363E414141227F4141221C7F494924
:1001A00049417F090909013E4149493A7F08080848
:1001B0007F41417F41412040413F017F181422414E
:1001C0007F404040407F020C027F7F0204187F3E48
:1001D0004141413E7F090909063E415121DE7F1917
:1001E000294946464949493101017F01013F4040C3
:1001F000403F1F3040301F3F4038403F63140814D9
:100200006303047804036151494543007F41410081
:1002100002040810200041417F001008040810006B
:1002200040404040000305000020545454787F486B
:100230004444383844444420384444487F38545473
:100240005418087E09010218A4A4A47C7F080404A1
:100250007800447D4000004080847D007F10284469
:1002600000417F40007C041804787C08040478383E
:1002700044444438FC1824241818242418FC7C080E
:100280000404084854545420043F4440203C404057
:10029000207C1C2040201C3C4030403C442810283E
:1002A000441CA0A0A07C4464544C440011241FBEF4
:1002B000CFEFD1E2DEBFCDBF00E00CBF12E0A0E087
:1002C000B2E0E2EFF5E000E00BBF02C007900D9254
:1002D000AC30B107D9F722E0ACE0B2E001C01D922A
:1002E000A331B207E1F7DED082C18ACE8EBD000015
:1002F000000000000DB407FEFDCF0000000000006C
:100300008EB508950F931F93CF93DF93C091110281
:10031000D0911202988121E030E089010090100212
:1003200002C0000F111F0A94E2F7402F409594235A
:10033000988300000000988100900F0202C0220FF5
:10034000331F0A94E2F7292B288300000000CEDF38
:100350008881082B088300000000DF91CF911F9156
:100360000F9108950F931F93CF93DF93C0911102C4
:10037000D0911202988121E030E0890100901002B2
:1003800002C0000F111F0A94E2F7402F40959423FA
:10039000988300000000988100900F0202C0220F95
:1003A000331F0A94E2F720952923288300000000D8
:1003B0009DDF8881082B088300000000DF91CF912A
:1003C0001F910F910895FF920F931F93CF93DF9387
:1003D000EC01162F80E2C6DF80E8C4DF812F806445
:1003E000C1DF85E0F82E88818823B9F000E010E0B5
:1003F000888190E08097F89EF001F99EF00D11241D
:10040000E00FF11FEC51FF4F84917CDF0F5F1F4F16
:100410000530110569F72196E6CFDF91CF911F9145
:100420000F91FF9008951F920F920FB60F92112413
:100430008F939F9380910D028230B1F068F48823EE
:10044000E9F08130E9F480910C028F5F80930C0217
:10045000149A449A109810C0833059F0843081F473
:10046000149A449A109A03C0149A449A1098409A85
:1004700007C0149A449A109A409802C0149844985D
:1004800080910D02882339F092B184E0982792B9C7
:1004900098B1892788B99F918F910F900FBE0F90C7
:1004A0001F9018958CB58D7F8CBD8CB581608CBDEF
:1004B00084B1876084B98CB580658CBD289A85E04D
:1004C00080930F0287E080930E0286E080931002F3
:1004D0008BE091E0909312028093110280910A01C7
:1004E000806E80930A0180910B01806480930B01E0
:1004F0000000000080910B018F7780930B018FE14A
:100500009EE40197F1F700C00000E0911102F09124
:100510001202208181E090E000900E0202C0880F5C
:10052000991F0A94E2F7822B8083EFE3FCE931976D
:10053000F1F700C0000083E215DF85E013DF83E1FF
:1005400011DF8CEB0FDF82E20DDF8CE00BDF81E24D
:1005500009DF81EC07DF60E080E092E034DF61E0FA
:1005600086E092E030DF80E2FDDE80E8FBDE80E4C2
:10057000F9DEC8EFD1E080E0C5DE2197E1F781B177
:10058000856181B987B1856187B982E084BD83E0E7
:1005900085BD80916E00826080936E008EEA87BD7B
:1005A00081B1806E81B987B1806E87B982B18F7158
:1005B00082B988B18F7188B9FFEF23E284EFF150DF
:1005C00020408040E1F700C00000149A449A10983F
:1005D000409894E082B1892782B988B1892788B987
:1005E000EFE7FCE03197F1F700C00000F3CFF8949B
:0205F000FFCF3B
:0C05F20048454C4C4F00574F524C440001
:00000001FF
