S01700004156524669726D77617265546573742E7372656347
S11300007AC0000097C0000095C0000093C00000B3
S113001091C000008FC000008DC000008BC00000A4
S113002089C0000087C0000085C0000083C00000B4
S113003081C000007FC000007DC000007BC00000C4
S113004079C00000A0C1000075C0000073C00000AA
S113005071C00000BDC100006DC000006BC0000095
S113006069C0000067C0000065C0000063C00000F4
S113007061C000005FC000005DC000005BC0000004
S113008059C0000057C0000055C0000053C0000014
S113009012C1000054C100004DC000004BC000005C
S11300A049C0000047C0000045C0000043C0000034
S11300B041C000003FC000003DC000003BC0000044
S11300C039C0000037C0000035C0000033C0000054
S11300D031C000002FC000002DC000002BC0000064
S11300E029C00000BA03BD03C403D903DC03DF0342
S11300F0E203E503E90311241FBECFEFD1E2DEBF23
S1130100CDBF00E00CBF12E0A0E0B2E0EEECFBE0FB
S113011000E00BBF02C007900D92A230B107D9F7DF
S113012022E0A2E0B2E001C01D92AB33B207E1F7D6
S113013028D24BC565CF8EBD0000000000000DB471
S113014007FEFDCF0000000000008EB508950F9358
S11301501F93CF93DF93C0911002D0911102988125
S113016021E030E0890100900F0202C0000F111F4E
S11301700A94E2F7402F40959423988300000000EE
S1130180988100900E0202C0220F331F0A94E2F7F6
S113019020952923288300000000CDDF8881082BC7
S11301A0088300000000DF91CF911F910F91089503
S11301B0CF93DF93C09100026091090270910A020B
S11301C080910B0290910C02DEEFDC0F4AE0C49F99
S11301D090011124032E000C440B550BCCD4211197
S11301E002C0CD2FE9CFC695C093000288E78C1BCF
S11301F080930602DF91CF91089510920D02149A14
S1130200449A109A4098BC0180E090E07AD327EC9D
S113021032EC4EE652E403D420E030E044EB53E405
S1130220DCD226ED3DEE4FEA5EE3D7D220E030E0AB
S113023040E852E4F4D356D438D36093090270935F
S11302400A0280930B0290930C02B2DFEEE6F0E018
S1130250808182608083089510920D02149A449ADA
S11302601098409ABC0180E090E04BD327EC32EC2C
S11302704EE652E4D4D320E030E044EB53E4ADD274
S113028026ED3DEE4FEA5EE3A8D220E030E040E800
S113029052E4C5D327D409D36093090270930A02A8
S11302A080930B0290930C0283DFEEE6F0E08081F2
S11302B08260808308951F920F920FB60F921124CB
S11302C00BB60F928F939F93EF93FF938091C80087
S11302D080933A02E091390281E08E0F80933902D3
S11302E08091CE00F0E0E65EFD4F8083809139027C
S11302F08F3111F41092390280911902882359F038
S1130300809118028F5F80931802809118028F31B8
S113031011F41092180290913902809118029813E6
S113032003C081E080931902FF91EF919F918F9117
S11303300F900BBE0F900FBE0F901F9018951F9239
S11303400F920FB60F9211248F939F9380911702EF
S11303508F5F809317021092CE00909116028091C5
S11303601702981309C01092160210921702809176
S1130370C9008F7D8093C9009F918F910F900FBE0C
S11303800F901F9018951F920F920FB60F92112481
S11303908F939F93AF93BF93809112029091130216
S11303A0A0911402B09115020196A11DB11D809374
S11303B0120290931302A0931402B0931502BF91FA
S11303C0AF919F918F910F900FBE0F901F90189532
S11303D01F920F920FB60F9211240BB60F92CF9269
S11303E0DF92EF92FF920F931F932F933F934F93BC
S11303F05F936F937F938F939F93AF93BF93EF9389
S1130400FF9392B184E0982792B998B1892788B96B
S11304108091020290910302A0910402B09105021E
S11304200196A11DB11D8093020290930302A09333
S11304300402B093050280910802813019F120F082
S1130440823009F449C084C06091020270910302B1
S113045080910402909105022AE030E040E050E0EF
S11304608AD320910602672B682B692B31F497B548
S1130470291718F487B5815045C097B5921368C001
S113048081E027C04091090250910A0260910B0259
S113049070910C02809100020091020210910302FB
S11304A02091040230910502EAE08E9FC0011124DC
S11304B0092E000CAA0BBB0B6A017B01C81AD90ACE
S11304C0EA0AFB0A0C151D052E053F0508F440C079
S11304D082E0809308023CC06091020270910302A2
S11304E080910402909105022AE030E040E050E05F
S11304F042D3672B682B692B39F487B5883720F4EE
S113050087B58F5F87BD24C087B5883709F580918B
S11305106E008D7F80936E001498449810920202AE
S11305201092030210920402109205021092090222
S113053010920A0210920B0210920C021092060200
S113054088EA809300021092080281E080930D02F1
S1130550FF91EF91BF91AF919F918F917F916F9197
S11305605F914F913F912F911F910F91FF90EF90C9
S1130570DF90CF900F900BBE0F900FBE0F901F9087
S113058018958CB58D7F8CBD8CB581608CBD84B184
S1130590876084B98CB580658CBD289A85E080938A
S11305A00E0287E08093070286E080930F028BE0BF
S11305B091E0909311028093100280910A01806E61
S11305C080930A0180910B01806480930B010000E9
S11305D0000080910B018F7780930B018FE19EE4E3
S11305E00197F1F700C00000E0911002F0911102B0
S11305F0208181E090E00090070202C0880F991FDB
S11306000A94E2F7822B80838FE39CE90197F1F748
S113061000C0000083E29BDD85E099DD83E197DD86
S11306208CEB95DD82E293DD8CE091DD81E28FDD60
S113063081EC8DDD87E68093CC001092CD0088E9B3
S11306408093C9008EE08093CA0081B1856181B92D
S113065087B1856187B987B1876087B981B18660C1
S113066081B981B1876081B987B1866087B982E039
S113067084BD84E085BD88E787BD809181008B605F
S11306808093810080916F00826080936F0089EF76
S113069090E09093890080938800789480E257DDFD
S11306A080E855DD80E453DD08EF11E0CC24C394E9
S11306B0D12CC0911002D091110288817601009052
S11306C00F0202C0EE0CFF1C0A94E2F79E2D9095D7
S11306D089238883000000002881C60100900E024F
S11306E002C0880F991F0A94E2F7822B88830000C6
S11306F0000080E020DD8881E82AE8820000000014
S113070001501109B1F68AEBC82ED12CE12CF12C41
S1130710C2E080911902811106C090913902809142
S113072018029817B1F380911902811106C09091B3
S1130730390280911802981761F310921902E0911E
S1130740180281E08E0F80931802F0E0E65EFD4F00
S1130750E081809118028F71809318028E2F90E0AF
S1130760FC01F097E930F105A0F68827EE58FF4F19
S11307708F4F23C2C0930802CCCF10920D02149A5B
S1130780449A1098409806C010920D02149A449A04
S1130790109A409AC0920902D0920A02E0920B0287
S11307A0F0920C0205DD80916E00826080936E00F1
S11307B0B0CF8AE090E00BC08AE090E00CC085E006
S11307C090E005C085E090E006C084EB90E044DD55
S11307D0A0CF84EB90E011DD9CCF0CD0E6C0DED03E
S11307E040F0D5D030F021F45F3F19F0C7C051116B
S11307F010C1CAC0EBD098F39923C9F35523B1F3C0
S1130800951B550BBB27AA2762177307840738F07B
S11308109F5F5F4F220F331F441FAA1FA9F333D0DA
S11308200E2E3AF0E0E830D091505040E695001C8E
S1130830CAF729D0FE2F27D0660F771F881FBB1F4A
S1130840261737074807AB07B0E809F0BB0B802D24
S1130850BF01FF2793585F4F2AF09E3F510568F070
S11308608DC0D7C05F3FECF3983EDCF38695779557
S11308706795B795F7959F5FC9F7880F911D969572
S1130880879597F90895E1E0660F771F881FBB1FCE
S1130890621773078407BA0720F0621B730B840B7B
S11308A0BA0BEE1F88F7E095089598D088F09F570B
S11308B090F0B92F9927B751A0F0D1F0660F771FA8
S11308C0881F991F1AF0BA95C9F712C0B13081F088
S11308D09FD0B1E008959CC0672F782F8827B85F18
S11308E039F0B93FCCF3869577956795B395D9F7E9
S11308F03EF490958095709561957F4F8F4F9F4FF3
S11309000895E89409C097FB3EF4909580957095FE
S113091061957F4F8F4F9F4F9923A9F0F92F96E947
S1130920BB279395F695879577956795B795F111BC
S1130930F8CFFAF4BB0F11F460FF1BC06F5F7F4F59
S11309408F4F9F4F16C0882311F096E911C077236B
S113095021F09EE8872F762F05C0662371F096E874
S1130960862F70E060E02AF09A95660F771F881F43
S1130970DAF7880F9695879597F9089597F99F6701
S113098080E870E060E008959FEF80EC0895002413
S11309900A941616170618060906089500240A94E0
S11309A012161306140605060895092E0394000C66
S11309B011F4882352F0BB0F40F4BF2B11F460FFF5
S11309C004C06F5F7F4F8F4F9F4F089557FD90581E
S11309D0440F551F59F05F3F71F04795880F97FBFF
S11309E0991F61F09F3F79F08795089512161306B9
S11309F01406551FF2CF4695F1DF08C016161706E8
S1130A001806991FF1CF869571056105089408951C
S1130A10E894BB2766277727CB0197F908950BD075
S1130A20C4CFB5DF28F0BADF18F0952309F0A6CFBC
S1130A30ABCF1124EECFCADFA0F3959FD1F3950F6E
S1130A4050E0551F629FF001729FBB27F00DB11D4E
S1130A50639FAA27F00DB11DAA1F649F6627B00DDE
S1130A60A11D661F829F2227B00DA11D621F739FC7
S1130A70B00DA11D621F839FA00D611D221F749FD5
S1130A803327A00D611D231F849F600D211D822F1C
S1130A90762F6A2F11249F5750408AF0E1F0882363
S1130AA04AF0EE0FFF1FBB1F661F771F881F915070
S1130AB05040A9F79E3F510570F060CFAACF5F3F29
S1130AC0ECF3983EDCF3869577956795B795F795A3
S1130AD0E7959F5FC1F7FE2B880F911D969587952B
S1130AE097F908957BDFE0F09E37D8F09639B8F493
S1130AF09E3848F4672F782F8827985FF9CF86951A
S1130B007795679593959539D0F3B62FB1706B0FA0
S1130B10711D811D20F4879577956795939502C083
S1130B201CC077CF882371F4772321F09850872B4A
S1130B30762F07C0662311F499270DC09051862B98
S1130B4070E060E02AF09A95660F771F881FDAF745
S1130B50880F9695879597F908959F3F31F09150A6
S1130B6020F4879577956795B795880F911D96958D
S1130B70879597F90895A1E21A2EAA1BBB1BFD01C4
S1130B800DC0AA1FBB1FEE1FFF1FA217B307E40768
S1130B90F50720F0A21BB30BE40BF50B661F771FC0
S1130BA0881F991F1A9469F76095709580959095A0
S1130BB09B01AC01BD01CF010895EE0FFF1F881FFB
S1110BC08BBF0790F691E02D1994F894FFCFA7
S1050BCEA80079
S9030000FC
