S01700004156524669726D77617265546573742E7372656347
S113000055C1000072C1000070C100006EC1000043
S11300106CC100006AC1000068C1000066C1000034
S113002064C1000062C1000060C100005EC1000044
S11300305CC100005AC1000058C1000056C1000054
S113004054C10000F0C1000050C100004EC10000C6
S11300504CC100000DC2000048C1000046C10000B0
S113006044C1000042C1000040C100003EC1000084
S11300703CC100003AC1000038C1000036C1000094
S113008034C1000032C1000030C100002EC10000A4
S11300902CC100002AC1000028C1000026C10000B4
S11300A024C1000022C1000020C100001EC10000C4
S11300B01CC100001AC1000018C1000016C10000D4
S11300C014C1000012C1000010C100000EC10000E4
S11300D00CC100000AC1000008C1000006C10000F4
S11300E004C10000000000000000005F00000000E8
S11300F0070007147F147F14242A7F2A122313086D
S1130100646236495522500000050300001C224158
S1130110000041221C0014083E081408083E080888
S113012000000050300808080808000030300020A3
S1130130100804023E5149453E00427F400040669B
S113014051494622414949361814127F1027454522
S113015045393C4A49493101710905033649494940
S113016036264949493E0000333300000000563624
S113017000081422000014141400002214080002C1
S113018001510906324949513E7E0909097E7F49D8
S11301904949363E414141227F4141221C7F494920
S11301A049417F090909013E4149493A7F08080844
S11301B07F41417F41412040413F017F181422414A
S11301C07F404040407F020C027F7F0204187F3E44
S11301D04141413E7F090909063E415121DE7F1913
S11301E0294946464949493101017F01013F4040BF
S11301F0403F1F3040301F3F4038403F63140814D5
S11302006303047804036151494543007F4141007D
S113021002040810200041417F0010080408100067
S113022040404040000305000020545454787F4867
S11302304444383844444420384444487F3854546F
S11302405418087E09010218A4A4A47C7F0804049D
S11302507800447D4000004080847D007F10284465
S113026000417F40007C041804787C08040478383A
S113027044444438FC1824241818242418FC7C080A
S11302800404084854545420043F4440203C404053
S1130290207C1C2040201C3C4030403C442810283A
S11302A0441CA0A0A07C4464544C440011241FBEF0
S11302B0CFEFD1E2DEBFCDBF00E00CBF12E0A0E083
S11302C0B2E0EEE7F0E100E00BBF02C007900D9250
S11302D0AA30B107D9F722E0AAE0B2E001C01D922A
S11302E0A133B207E1F77DD1C8C68ACE8EBD000026
S11302F0000000000DB407FEFDCF00000000000068
S11303008EB508950F931F93CF93DF93C0912B0263
S1130310D0912C02988121E030E0890100902A02DA
S113032002C0000F111F0A94E2F7402F4095942356
S113033098830000000098810090290202C0220FD7
S1130340331F0A94E2F7292B288300000000CEDF34
S11303508881082B088300000000DF91CF911F9152
S11303600F9108950F931F93CF93DF93C0912B02A6
S1130370D0912C02988121E030E0890100902A027A
S113038002C0000F111F0A94E2F7402F40959423F6
S113039098830000000098810090290202C0220F77
S11303A0331F0A94E2F720952923288300000000D4
S11303B09DDF8881082B088300000000DF91CF9126
S11303C01F910F910895FF920F931F93CF93DF9383
S11303D0EC01162F80E2C6DF80E8C4DF812F806441
S11303E0C1DF85E0F82E88818823B9F000E010E0B1
S11303F0888190E08097F89EF001F99EF00D112419
S1130400E00FF11FEC51FF4F84917CDF0F5F1F4F12
S11304100530110569F72196E6CFDF91CF911F9141
S11304200F91FF9008951F920F920FB60F9211240F
S11304308F939F93AF93BF9380912D0290912E023F
S1130440A0912F02B09130020196A11DB11D80939D
S11304502D0290932E02A0932F02B0933002BF91ED
S1130460AF919F918F910F900FBE0F901F90189591
S11304701F920F920FB60F9211240BB60F922F9367
S11304803F934F935F936F937F938F939F93AF9318
S1130490BF93EF93FF9392B184E0982792B998B1F8
S11304A0892788B980910B0290910C02A0910D02CA
S11304B0B0910E020196A11DB11D80930B02909381
S11304C00C02A0930D02B0930E0280910F028130B2
S11304D009F118F08230D9F171C060910B0270916A
S11304E00C0280910D0290910E022AE030E040E06F
S11304F050E0C6D2672B682B692B31F487B585325F
S113050018F087B5815039C087B5843209F056C0D8
S113051081E01AC08091100290911102A091120200
S1130520B091130240910B0250910C0260910D02A4
S113053070910E0288549340A109B10948175907D4
S11305406A077B07D8F182E080930F0237C060917D
S11305500B0270910C0280910D0290910E022AE020
S113056030E040E050E08CD2672B682B692B39F4E3
S113057087B5883720F487B58F5F87BD1FC087B5DF
S11305808837E1F480916E008D7F80936E0014981B
S1130590449810920B0210920C0210920D021092C9
S11305A00E02109210021092110210921202109276
S11305B0130210920F0281E080931402FF91EF91D5
S11305C0BF91AF919F918F917F916F915F914F9167
S11305D03F912F910F900BBE0F900FBE0F901F9065
S11305E018958CB58D7F8CBD8CB581608CBD84B124
S11305F0876084B98CB580658CBD289A85E080932A
S1130600290287E080930A0286E080932A028BE025
S113061091E090932C0280932B0280910A01806ECA
S113062080930A0180910B01806480930B01000088
S1130630000080910B018F7780930B018FE19EE482
S11306400197F1F700C00000E0912B02F0912C0219
S1130650208181E090E000900A0202C0880F991F77
S11306600A94E2F7822B80838FE39CE90197F1F7E8
S113067000C0000083E276DE85E074DE83E172DE92
S11306808CEB70DE82E26EDE8CE06CDE81E26ADE90
S113069081EC68DE81B1856181B987B1856187B9F3
S11306A087B1876087B981B1866081B981B187607C
S11306B081B987B1866087B982E084BD84E085BD55
S11306C088E787BD789480E24DDE80E84BDE80E4E5
S11306D049DEC8EFD1E080E015DE2197E1F7109202
S11306E01402149A449A109840988AEE9AE0A0E072
S11306F0B0E08093100290931102A0931202B09381
S1130700130280916E00826080936E00C0E0D2E09C
S113071005E112E082E0F82E80911402813009F4A0
S113072040C060910B0270910C0280910D02909177
S11307300E02B5D020E030E040E85CE316D126EDAF
S11307403DEE4FEA5EE311D17ED07F936F93DF934A
S1130750CF931F930F93B6D163E085E192E033DE2C
S113076060910B0270910C0280910D0290910E0227
S113077096D020E030E040E85CE3F7D026ED3DEE93
S11307804FEA5EE3F2D05FD00F900F900F900F907E
S11307900F900F906F30710509F0BECFF0920F02E9
S11307A0BBCF60E083E092E00EDE10921402149A54
S11307B0449A109A409A85E49AEDA0E0B0E08093C0
S11307C0100290931102A0931202B093130280912D
S11307D06E00826080936E00809114028130E1F794
S11307E010921402149A449A1098409A8BED9AE04D
S11307F0A0E0B0E08093100290931102A093120243
S1130800B093130280916E00826080936E00809199
S113081014028130E1F710921402149A449A109A47
S113082040988BED9AE0A0E0B0E0809310029093A2
S11308301102A0931202B093130280916E008260A1
S113084080936E00FFCF70D088F09F5790F0B92F3F
S11308509927B751A0F0D1F0660F771F881F991F11
S11308601AF0BA95C9F712C0B13081F077D0B1E06F
S1130870089574C0672F782F8827B85F39F0B93F7F
S1130880CCF3869577956795B395D9F73EF4909513
S11308908095709561957F4F8F4F9F4F0895E89491
S11308A009C097FB3EF490958095709561957F4FB4
S11308B08F4F9F4F9923A9F0F92F96E9BB27939562
S11308C0F695879577956795B795F111F8CFFAF472
S11308D0BB0F11F460FF1BC06F5F7F4F8F4F9F4FA3
S11308E016C0882311F096E911C0772321F09EE801
S11308F0872F762F05C0662371F096E8862F70E067
S113090060E02AF09A95660F771F881FDAF7880F40
S11309109695879597F9089557FD9058440F551F5C
S113092059F05F3F71F04795880F97FB991F61F06D
S11309309F3F79F087950895121613061406551FE4
S1130940F2CF4695F1DF08C0161617061806991F50
S1130950F1CF86957105610508940895E894BB2745
S113096066277727CB0197F908950BD078C069D013
S113097028F06ED018F0952309F05AC05FC01124F6
S1130980EECFCADFA0F3959FD1F3950F50E0551F2A
S1130990629FF001729FBB27F00DB11D639FAA27D0
S11309A0F00DB11DAA1F649F6627B00DA11D661F1F
S11309B0829F2227B00DA11D621F739FB00DA11D40
S11309C0621F839FA00D611D221F749F3327A00DFA
S11309D0611D231F849F600D211D822F762F6A2F96
S11309E011249F5750408AF0E1F088234AF0EE0F1B
S11309F0FF1FBB1F661F771F881F91505040A9F728
S1130A009E3F510570F014C0AACF5F3FECF3983EAF
S1130A10DCF3869577956795B795F795E7959F5F8E
S1130A20C1F7FE2B880F911D9695879597F9089528
S1130A3097F99F6780E870E060E008959FEF80EC8D
S1130A40089500240A941616170618060906089530
S1130A5000240A9412161306140605060895092E96
S1130A600394000C11F4882352F0BB0F40F4BF2B05
S1130A7011F460FF04C06F5F7F4F8F4F9F4F089545
S1130A80A1E21A2EAA1BBB1BFD010DC0AA1FBB1F8E
S1130A90EE1FFF1FA217B307E407F50720F0A21B00
S1130AA0B30BE40BF50B661F771F881F991F1A946D
S1130AB069F760957095809590959B01AC01BD0197
S1130AC0CF0108950F931F93CF93DF93CDB7DEB774
S1130AD02E970FB6F894DEBF0FBECDBF0E891F89C7
S1130AE086E08C831A8309838FEF9FE79E838D832F
S1130AF0AE01465E5F4F688D798DCE01019610D0B0
S1130B00EF81F885E00FF11F10822E960FB6F8944E
S1130B10DEBF0FBECDBFDF91CF911F910F9108951E
S1130B202F923F924F925F926F927F928F929F92F9
S1130B30AF92BF92CF92DF92EF92FF920F931F93E7
S1130B40CF93DF93CDB7DEB72B970FB6F894DEBF04
S1130B500FBECDBF6C017B018A01FC011782168296
S1130B60838181FFBFC1CE0101963C01F6019381CF
S1130B70F70193FD859193FF81917F01882309F407
S1130B80ADC1853239F493FD859193FF81917F0145
S1130B90853221F4B60190E0D6D1E8CF912C212CF6
S1130BA0312CFFE1F315D8F08B3279F038F4803230
S1130BB079F08332A1F4232D20611DC08D3261F0C0
S1130BC0803369F4232D216016C0832D8260382E72
S1130BD0E32DE4603E2E2AC0F32DF8601DC037FCDF
S1130BE02DC020ED280F2A3040F08E32B9F436FCA7
S1130BF075C1232D2064322E19C036FE06C08AE04A
S1130C00989E200D1124922E11C0EAE02E9E200DF4
S1130C101124222EF32DF0623F2E08C08C3621F4CD
S1130C20832D8068382E02C0883641F4F70193FD85
S1130C30859193FF81917F018111B3CF982F9F7D7F
S1130C409554933028F40C5F1F4F9FE399830DC094
S1130C50833631F0833771F0833509F055C020C0F5
S1130C60F801808189830E5F1F4F88248394912C1F
S1130C70530112C02801F2E04F0E511CF801A0806C
S1130C80B18036FE03C0692D70E002C06FEF7FEFC4
S1130C90C5014ED14C018201F32DFF773F2E15C0C3
S1130CA0280122E0420E511CF801A080B18036FEDA
S1130CB003C0692D70E002C06FEF7FEFC5012DD135
S1130CC04C01F32DF0683F2E820133FC19C0822DB4
S1130CD090E088169906A0F4B60180E290E033D142
S1130CE02A94F5CFF50137FC859137FE81915F0198
S1130CF0B60190E028D121102A9421E0821A9108AB
S1130D008114910479F7E1C0843611F0893639F5FC
S1130D10F80137FE07C060817181828193810C5F85
S1130D201F4F08C060817181072E000C880B990B3E
S1130D300E5F1F4FF32DFF763F2E97FF09C090954E
S1130D408095709561957F4F8F4F9F4FF0683F2E30
S1130D502AE030E0A30133D1882E861844C08537B9
S1130D6031F4232D2F7EB22E2AE030E025C0932DBE
S1130D70997FB92E8F36C1F018F4883579F0AEC05A
S1130D80803719F0883721F0A9C0E92FE061BE2E21
S1130D90B4FE0DC0FB2DF460BF2E09C034FE0AC0A2
S1130DA0292F2660B22E06C028E030E005C020E1DD
S1130DB030E002C020E132E0F801B7FE07C06081F4
S1130DC07181828193810C5F1F4F06C060817181A4
S1130DD080E090E00E5F1F4FA301F1D0882E8618AB
S1130DE0FB2DFF773F2E36FE0DC0232D2E7FA22E26
S1130DF0891458F434FE0BC032FC09C0832D8E7E56
S1130E00A82E05C0B82CA32C03C0B82C01C0B92C43
S1130E10A4FE0FC0FE01E80DF11D8081803321F492
S1130E209A2D997EA92E09C0A2FE06C0B394B3944C
S1130E3004C08A2D867809F0B394A3FC10C0A0FEE8
S1130E4006C0B21480F4280C922C9B180DC0B21466
S1130E5058F4B60180E290E076D0B394F8CFB2149F
S1130E6018F42B1802C0982C212CA4FE0FC0B60134
S1130E7080E390E068D0A2FE16C0A1FC03C088E71E
S1130E8090E002C088E590E0B6010CC08A2D867817
S1130E9051F0A1FE02C08BE201C080E2A7FC8DE20A
S1130EA0B60190E050D0891430F4B60180E390E0AC
S1130EB04AD09A94F8CF8A94F301E80DF11D808109
S1130EC0B60190E040D08110F6CF222009F44ECE36
S1130ED0B60180E290E037D02A94F7CFF6018681FC
S1130EE0978102C08FEF9FEF2B960FB6F894DEBF69
S1130EF00FBECDBFDF91CF911F910F91FF90EF9067
S1130F00DF90CF90BF90AF909F908F907F906F9025
S1130F105F904F903F902F900895FC010590615091
S1130F2070400110D8F7809590958E0F9F1F0895FB
S1130F30FC016150704001900110D8F780959095A4
S1130F408E0F9F1F08950F931F93CF93DF93FB0181
S1130F50238121FD03C08FEF9FEF2CC022FF16C019
S1130F6046815781248135814217530744F4A08177
S1130F70B1819D012F5F3F4F318320838C93268164
S1130F8037812F5F3F4F3783268314C08B01EC01D9
S1130F90FB010084F185E02D1995892BE1F6D80138
S1130FA016968D919C911797019617969C938E9304
S1130FB01697CE01DF91CF911F910F910895FA01F9
S1130FC0AA27283051F1203181F1E8946F936E7F84
S1130FD06E5F7F4F8F4F9F4FAF4FB1E03ED0B4E075
S1130FE03CD0670F781F891F9A1FA11D680F791FB6
S1130FF08A1F911DA11D6A0F711D811D911DA11DC7
S113100020D009F468943F912AE0269F11243019D6
S1131010305D3193DEF6CF010895462F4770405D71
S11310204193B3E00FD0C9F7F6CF462F4F70405D20
S11310304A3318F0495D31FD4052419302D0A9F77B
S1131040EACFB4E0A6959795879577956795BA9575
S1131050C9F700976105710508959B01AC010A2E3B
S113106006945795479537952795BA95C9F7620F12
S1111070731F841F951FA01D0895F894FFCFD1
S10D107E2564006D6F7665640000C0
S9030000FC
