S01700004156524669726D77617265546573742E7372656347
S113000055C1000072C1000070C100006EC1000043
S11300106CC100006AC1000068C1000066C1000034
S113002064C1000062C1000060C100005EC1000044
S11300305CC100005AC1000058C1000056C1000054
S113004054C1000046C2000050C100004EC100006F
S11300504CC1000063C2000048C1000046C100005A
S113006044C1000042C1000040C100003EC1000084
S11300703CC100003AC1000038C1000036C1000094
S113008034C1000032C1000030C100002EC10000A4
S1130090E5C10000FAC1000028C1000026C100002B
S11300A024C1000022C1000020C100001EC10000C4
S11300B01CC100001AC1000018C1000016C10000D4
S11300C014C1000012C1000010C100000EC10000E4
S11300D00CC100000AC1000008C1000006C10000F4
S11300E004C10000000000000000005F00000000E8
S11300F0070007147F147F14242A7F2A122313086D
S1130100646236495522500000050300001C224158
S1130110000041221C0014083E081408083E080888
S113012000000050300808080808000030300020A3
S1130130100804023E5149453E00427F400040669B
S113014051494622414949361814127F1027454522
S113015045393C4A49493101710905033649494940
S113016036264949493E0000333300000000563624
S113017000081422000014141400002214080002C1
S113018001510906324949513E7E0909097E7F49D8
S11301904949363E414141227F4141221C7F494920
S11301A049417F090909013E4149493A7F08080844
S11301B07F41417F41412040413F017F181422414A
S11301C07F404040407F020C027F7F0204187F3E44
S11301D04141413E7F090909063E415121DE7F1913
S11301E0294946464949493101017F01013F4040BF
S11301F0403F1F3040301F3F4038403F63140814D5
S11302006303047804036151494543007F4141007D
S113021002040810200041417F0010080408100067
S113022040404040000305000020545454787F4867
S11302304444383844444420384444487F3854546F
S11302405418087E09010218A4A4A47C7F0804049D
S11302507800447D4000004080847D007F10284465
S113026000417F40007C041804787C08040478383A
S113027044444438FC1824241818242418FC7C080A
S11302800404084854545420043F4440203C404053
S1130290207C1C2040201C3C4030403C442810283A
S11302A0441CA0A0A07C4464544C440011241FBEF0
S11302B0CFEFD1E2DEBFCDBF00E00CBF12E0A0E083
S11302C0B2E0E2E3F1E100E00BBF02C007900D925F
S11302D0AE30B107D9F722E0AEE0B2E001C01D9222
S11302E0AA32B207E1F7F3D122C78ACE8EBD00004D
S11302F0000000000DB407FEFDCF00000000000068
S11303008EB508950F931F93CF93DF93C0911F026F
S1130310D0912002988121E030E0890100901E02F2
S113032002C0000F111F0A94E2F7402F4095942356
S1130330988300000000988100901D0202C0220FE3
S1130340331F0A94E2F7292B288300000000CEDF34
S11303508881082B088300000000DF91CF911F9152
S11303600F9108950F931F93CF93DF93C0911F02B2
S1130370D0912002988121E030E0890100901E0292
S113038002C0000F111F0A94E2F7402F40959423F6
S1130390988300000000988100901D0202C0220F83
S11303A0331F0A94E2F720952923288300000000D4
S11303B09DDF8881082B088300000000DF91CF9126
S11303C01F910F910895CF93DF9380E2CBDF80E8F4
S11303D0C9DF80E4C7DFC8EFD1E080E093DF219775
S11303E0E1F7DF91CF9108958091090184FDFCCF5D
S11303F080910B01846080930B0185E38A95F1F76A
S1130400000080910B018B7F80930B018091090187
S113041084FFFCCF20E030E0A9018091090184FF32
S11304200DC02F5F3F4F4F4F5F4F21368DE638078A
S11304304105510591F720E030E0A901AFE0B0E0BB
S113044082D36D5E7F4F8F4F9F4F6AD221E233E993
S11304504CE85AE3CBD238D2CB0108951F920F92C5
S11304600FB60F9211248F938091C80080932902B4
S113047081E0809328028091CE00809327028F919F
S11304800F900FBE0F901F9018951F920F920FB6EA
S11304900F9211248F939F93809126028F5F8093F4
S11304A026021092CE009091250280912602981384
S11304B009C010922502109226028091C9008F7DF6
S11304C08093C9009F918F910F900FBE0F901F9042
S11304D018951F920F920FB60F9211248F939F932A
S11304E0AF93BF938091210290912202A0912302A5
S11304F0B09124020196A11DB11D80932102909315
S11305002202A0932302B0932402BF91AF919F9142
S11305108F910F900FBE0F901F9018951F920F92FE
S11305200FB60F9211240BB60F92CF92DF92EF9277
S1130530FF920F931F932F933F934F935F936F9368
S11305407F938F939F93AF93BF93EF93FF9392B156
S113055084E0982792B998B1892788B980911802C4
S113056090911902A0911A02B0911B020196A11D4B
S1130570B11D8093180290931902A0931A02B093AC
S11305801B0280911702813019F120F0823009F4A6
S113059049C084C0609118027091190280911A02B6
S11305A090911B022AE030E040E050E0AAD2209172
S11305B01602672B682B692B31F497B5291718F4A9
S11305C087B5815045C097B5921368C081E027C0B4
S11305D0409112025091130260911402709115021D
S11305E080910002009118021091190220911A02C0
S11305F030911B02EAE08E9FC0011124092E000CE9
S1130600AA0BBB0B6A017B01C81AD90AEA0AFB0AC6
S11306100C151D052E053F0508F440C082E08093AB
S113062017023CC0609118027091190280911A025D
S113063090911B022AE030E040E050E062D2672B48
S1130640682B692B39F487B5883720F487B58F5F19
S113065087BD24C087B5883709F580916E008D7FEA
S113066080936E0014984498109218021092190204
S113067010921A0210921B0210921202109213028C
S113068010921402109215021092160288EA8093B6
S113069000021092170281E080931102FF91EF9102
S11306A0BF91AF919F918F917F916F915F914F9186
S11306B03F912F911F910F91FF90EF90DF90CF907A
S11306C00F900BBE0F900FBE0F901F901895CF93F5
S11306D0DF93CDB7DEB72A970FB6F894DEBF0FBE0F
S11306E0CDBF8CB58D7F8CBD8CB581608CBD84B144
S11306F0876084B98CB580658CBD289A85E0809329
S11307001D0287E080931C0286E080931E028BE02A
S113071091E09093200280931F0280910A01806EE1
S113072080930A0180910B01806480930B01000087
S1130730000080910B018F7780930B018FE19EE481
S11307400197F1F700C00000E0911F02F091200230
S1130750208181E090E000901C0202C0880F991F64
S11307600A94E2F7822B8083EFE3FCE93197F1F7F7
S113077000C0000083E2F6DD85E0F4DD83E1F2DD14
S11307808CEBF0DD82E2EEDD8CE0ECDD81E2EADD93
S113079081ECE8DD87E68093CC001092CD0088E9F7
S11307A08093C9008EE08093CA001092CE0081B17C
S11307B0856181B987B1856187B987B1876087B958
S11307C081B1866081B981B1876081B987B1866062
S11307D087B982E084BD84E085BD88E787BD8091C8
S11307E081008B608093810080916F008260809390
S11307F06F0089EF90E0909389008093880078944B
S1130800E2DD80910A01846080930A0180910A01EB
S11308108F7E80930A01809001029090020288E00A
S1130820582E3E01F3E06F0E711C9BE0C92E92E03E
S1130830D92ECE0101965C0125E0422ED5DD9A82A7
S11308408982F301252D11922A95E9F79F938F93BD
S1130850DF92CF92BF92AF928FD1B5DD80E282DD7D
S113086080E880DD80E47EDD0F900F900F900F9084
S11308700F900F908501F80180818823D9F0E12C35
S1130880F12CF801808190E08097489EF001499E08
S1130890F00D1124EE0DFF1DEC51FF4F849132DD5C
S11308A0FFEFEF1AFF0A25E0E216F10451F70F5F9C
S11308B01F4FE1CFFFEF29E688E1F150204080404F
S11308C0E1F700C00000BACF70D088F09F5790F0D5
S11308D0B92F9927B751A0F0D1F0660F771F881F61
S11308E0991F1AF0BA95C9F712C0B13081F077D0C8
S11308F0B1E0089574C0672F782F8827B85F39F066
S1130900B93FCCF3869577956795B395D9F73EF4BF
S113091090958095709561957F4F8F4F9F4F089567
S1130920E89409C097FB3EF4909580957095619585
S11309307F4F8F4F9F4F9923A9F0F92F96E9BB273B
S11309409395F695879577956795B795F111F8CFB7
S1130950FAF4BB0F11F460FF1BC06F5F7F4F8F4F22
S11309609F4F16C0882311F096E911C0772321F018
S11309709EE8872F762F05C0662371F096E8862FB0
S113098070E060E02AF09A95660F771F881FDAF707
S1130990880F9695879597F9089557FD9058440FB9
S11309A0551F59F05F3F71F04795880F97FB991FCA
S11309B061F09F3F79F08795089512161306140687
S11309C0551FF2CF4695F1DF08C016161706180614
S11309D0991FF1CF86957105610508940895E894EF
S11309E0BB2766277727CB0197F908950BD078C0EA
S11309F069D028F06ED018F0952309F05AC05FC072
S1130A001124EECFCADFA0F3959FD1F3950F50E0E8
S1130A10551F629FF001729FBB27F00DB11D639FAC
S1130A20AA27F00DB11DAA1F649F6627B00DA11D52
S1130A30661F829F2227B00DA11D621F739FB00DF8
S1130A40A11D621F839FA00D611D221F749F332768
S1130A50A00D611D231F849F600D211D822F762F01
S1130A606A2F11249F5750408AF0E1F088234AF0FE
S1130A70EE0FFF1FBB1F661F771F881F915050404A
S1130A80A9F79E3F510570F014C0AACF5F3FECF365
S1130A90983EDCF3869577956795B795F795E79536
S1130AA09F5FC1F7FE2B880F911D9695879597F947
S1130AB0089597F99F6780E870E060E008959FEFDC
S1130AC080EC089500240A941616170618060906E1
S1130AD0089500240A9412161306140605060895B0
S1130AE0092E0394000C11F4882352F0BB0F40F438
S1130AF0BF2B11F460FF04C06F5F7F4F8F4F9F4F78
S1130B000895A1E21A2EAA1BBB1BFD010DC0AA1F4A
S1130B10BB1FEE1FFF1FA217B307E407F50720F062
S1130B20A21BB30BE40BF50B661F771F881F991FDD
S1130B301A9469F760957095809590959B01AC0126
S1130B40BD01CF01089509D0A59F900DB49F900DCC
S1130B50A49F800D911D11240895A29FB001B39FFD
S1130B60C001A39F700D811D1124911DB29F700DB2
S1130B70811D1124911D08950F931F93CF93DF932B
S1130B80CDB7DEB72E970FB6F894DEBF0FBECDBF3C
S1130B900E891F8986E08C831A8309838FEF9FE770
S1130BA09E838D83AE01465E5F4F688D798DCE0145
S1130BB0019610D0EF81F885E00FF11F10822E9678
S1130BC00FB6F894DEBF0FBECDBFDF91CF911F915A
S1130BD00F9108952F923F924F925F926F927F925E
S1130BE08F929F92AF92BF92CF92DF92EF92FF9239
S1130BF00F931F93CF93DF93CDB7DEB72B970FB629
S1130C00F894DEBF0FBECDBF6C017B018A01FC01ED
S1130C1017821682838181FFBFC1CE0101963C01F8
S1130C20F6019381F70193FD859193FF81917F01F3
S1130C30882309F4ADC1853239F493FD859193FF7E
S1130C4081917F01853221F4B60190E0D6D1E8CFBD
S1130C50912C212C312CFFE1F315D8F08B3279F053
S1130C6038F4803279F08332A1F4232D20611DC041
S1130C708D3261F0803369F4232D216016C0832DF9
S1130C808260382EE32DE4603E2E2AC0F32DF860F6
S1130C901DC037FC2DC020ED280F2A3040F08E32C5
S1130CA0B9F436FC75C1232D2064322E19C036FEEA
S1130CB006C08AE0989E200D1124922E11C0EAE00D
S1130CC02E9E200D1124222EF32DF0623F2E08C0FB
S1130CD08C3621F4832D8068382E02C0883641F486
S1130CE0F70193FD859193FF81917F018111B3CF2A
S1130CF0982F9F7D9554933028F40C5F1F4F9FE3EA
S1130D0099830DC0833631F0833771F0833509F050
S1130D1055C020C0F801808189830E5F1F4F88244D
S1130D208394912C530112C02801F2E04F0E511C00
S1130D30F801A080B18036FE03C0692D70E002C0C6
S1130D406FEF7FEFC5014ED14C018201F32DFF7788
S1130D503F2E15C0280122E0420E511CF801A0804C
S1130D60B18036FE03C0692D70E002C06FEF7FEFE3
S1130D70C5012DD14C01F32DF0683F2E820133FCC7
S1130D8019C0822D90E088169906A0F4B60180E27D
S1130D9090E033D12A94F5CFF50137FC859137FEE5
S1130DA081915F01B60190E028D121102A9421E0BD
S1130DB0821A91088114910479F7E1C0843611F004
S1130DC0893639F5F80137FE07C060817181828167
S1130DD093810C5F1F4F08C060817181072E000C46
S1130DE0880B990B0E5F1F4FF32DFF763F2E97FF55
S1130DF009C090958095709561957F4F8F4F9F4F57
S1130E00F0683F2E2AE030E0A30133D1882E861803
S1130E1044C0853731F4232D2F7EB22E2AE030E0F2
S1130E2025C0932D997FB92E8F36C1F018F48835DB
S1130E3079F0AEC0803719F0883721F0A9C0E92FC6
S1130E40E061BE2EB4FE0DC0FB2DF460BF2E09C0C0
S1130E5034FE0AC0292F2660B22E06C028E030E0F6
S1130E6005C020E130E002C020E132E0F801B7FE25
S1130E7007C060817181828193810C5F1F4F06C01E
S1130E806081718180E090E00E5F1F4FA301F1D07B
S1130E90882E8618FB2DFF773F2E36FE0DC0232D9E
S1130EA02E7FA22E891458F434FE0BC032FC09C0E4
S1130EB0832D8E7EA82E05C0B82CA32C03C0B82C7D
S1130EC001C0B92CA4FE0FC0FE01E80DF11D808104
S1130ED0803321F49A2D997EA92E09C0A2FE06C062
S1130EE0B394B39404C08A2D867809F0B394A3FC18
S1130EF010C0A0FE06C0B21480F4280C922C9B18DB
S1130F000DC0B21458F4B60180E290E076D0B394E8
S1130F10F8CFB21418F42B1802C0982C212CA4FE7C
S1130F200FC0B60180E390E068D0A2FE16C0A1FC19
S1130F3003C088E790E002C088E590E0B6010CC0E9
S1130F408A2D867851F0A1FE02C08BE201C080E2B6
S1130F50A7FC8DE2B60190E050D0891430F4B601BC
S1130F6080E390E04AD09A94F8CF8A94F301E80D94
S1130F70F11D8081B60190E040D08110F6CF22208F
S1130F8009F44ECEB60180E290E037D02A94F7CF30
S1130F90F6018681978102C08FEF9FEF2B960FB6E3
S1130FA0F894DEBF0FBECDBFDF91CF911F910F919B
S1130FB0FF90EF90DF90CF90BF90AF909F908F9075
S1130FC07F906F905F904F903F902F900895FC0119
S1130FD00590615070400110D8F7809590958E0F60
S1130FE09F1F0895FC016150704001900110D8F7D3
S1130FF0809590958E0F9F1F08950F931F93CF9305
S1131000DF93FB01238121FD03C08FEF9FEF2CC0F1
S113101022FF16C046815781248135814217530728
S113102044F4A081B1819D012F5F3F4F3183208320
S11310308C93268137812F5F3F4F3783268314C0DB
S11310408B01EC01FB010084F185E02D1995892BBE
S1131050E1F6D80116968D919C91179701961796F3
S11310609C938E931697CE01DF91CF911F910F9190
S11310700895FA01AA27283051F1203181F1E8942A
S11310806F936E7F6E5F7F4F8F4F9F4FAF4FB1E077
S11310903ED0B4E03CD0670F781F891F9A1FA11D72
S11310A0680F791F8A1F911DA11D6A0F711D811D73
S11310B0911DA11D20D009F468943F912AE0269F38
S11310C011243019305D3193DEF6CF010895462F97
S11310D04770405D4193B3E00FD0C9F7F6CF462F78
S11310E04F70405D4A3318F0495D31FD40524193E1
S11310F002D0A9F7EACFB4E0A6959795879577959E
S11311006795BA95C9F700976105710508959B0124
S1131110AC010A2E06945795479537952795BA95AD
S1131120C9F7620F731F841F951FA01D0895F894BB
S1051130FFCFEB
S1111132A8000000000000000000002564007A
S9030000FC
