:1000000055C1000072C1000070C100006EC1000047
:100010006CC100006AC1000068C1000066C1000038
:1000200064C1000062C1000060C100005EC1000048
:100030005CC100005AC1000058C1000056C1000058
:1000400054C100007CC2000050C100004EC100003D
:100050004CC10000C0C2000048C1000046C1000001
:1000600044C1000042C1000040C100003EC1000088
:100070003CC100003AC1000038C1000036C1000098
:1000800034C1000032C1000030C100002EC10000A8
:100090002CC100002AC1000028C1000026C10000B8
:1000A00024C1000022C1000020C100001EC10000C8
:1000B0001CC100001AC1000018C1000016C10000D8
:1000C00014C1000012C1000010C100000EC10000E8
:1000D0000CC100000AC1000008C1000006C10000F8
:1000E00004C10000000000000000005F00000000EC
:1000F000070007147F147F14242A7F2A1223130871
:10010000646236495522500000050300001C22415C
:10011000000041221C0014083E081408083E08088C
:1001200000000050300808080808000030300020A7
:10013000100804023E5149453E00427F400040669F
:1001400051494622414949361814127F1027454526
:1001500045393C4A49493101710905033649494944
:1001600036264949493E0000333300000000563628
:1001700000081422000014141400002214080002C5
:1001800001510906324949513E7E0909097E7F49DC
:100190004949363E414141227F4141221C7F494924
:1001A00049417F090909013E4149493A7F08080848
:1001B0007F41417F41412040413F017F181422414E
:1001C0007F404040407F020C027F7F0204187F3E48
:1001D0004141413E7F090909063E415121DE7F1917
:1001E000294946464949493101017F01013F4040C3
:1001F000403F1F3040301F3F4038403F63140814D9
:100200006303047804036151494543007F41410081
:1002100002040810200041417F001008040810006B
:1002200040404040000305000020545454787F486B
:100230004444383844444420384444487F38545473
:100240005418087E09010218A4A4A47C7F080404A1
:100250007800447D4000004080847D007F10284469
:1002600000417F40007C041804787C08040478383E
:1002700044444438FC1824241818242418FC7C080E
:100280000404084854545420043F4440203C404057
:10029000207C1C2040201C3C4030403C442810283E
:1002A000441CA0A0A07C4464544C440011241FBEF4
:1002B000CFEFD1E2DEBFCDBF00E00CBF12E0A0E087
:1002C000B2E0E8EEF0E100E00BBF02C007900D9253
:1002D000A631B107D9F722E0A6E1B2E001C01D9234
:1002E000AB34B207E1F74ED2FDC68ACE20E030E053
:1002F0008091BC0090E0880F892F881F990B892B73
:1003000031F42F5F3F4F243D89E4380789F7089582
:100310008EBD0000000000000DB407FEFDCF000000
:10032000000000008EB50895DF92EF92FF920F93C8
:100330001F93CF93DF93D82E062FCCEBD0E084EA27
:100340008883D4DF8BEBE82EF12C8AE1F7018083E0
:1003500014E81883CBDFF701D0821883C7DFF701D9
:1003600000831883C3DF84E98883DF91CF911F91D5
:100370000F91FF90EF90DF9008950F931F93CF930D
:10038000DF93C0913A02D0913B02988121E030E0A6
:1003900089010090390202C0000F111F0A94E2F790
:1003A000402F40959423988300000000988100908E
:1003B000380202C0220F331F0A94E2F7292B288348
:1003C00000000000A5DF8881082B088300000000E2
:1003D000DF91CF911F910F9108950F931F93CF93AA
:1003E000DF93C0913A02D0913B02988121E030E046
:1003F00089010090390202C0000F111F0A94E2F730
:10040000402F40959423988300000000988100902D
:10041000380202C0220F331F0A94E2F720952923E5
:1004200028830000000074DF8881082B0883000007
:100430000000DF91CF911F910F910895FF920F93CC
:100440001F93CF93DF93EC01162F80E2C6DF80E885
:10045000C4DF812F8064C1DF85E0F82E8881882386
:10046000B9F000E010E0888190E08097F89EF001FC
:10047000F99EF00D1124E00FF11FEC51FF4F849114
:100480007CDF0F5F1F4F0530110569F72196E6CF1E
:10049000DF91CF911F910F91FF9008958FB7F8943E
:1004A00040914702509148026091490270914A027E
:1004B0008FBF0895FF920F931F93CF93DF93F62E74
:1004C000072F142FE0913602F0913702908121E03E
:1004D00030E00090350202C0220F331F0A94E2F789
:1004E00020952923208395E39A95F1F7000010DFEA
:1004F000CF2DD02FCE01810F911D8C01C017D107B8
:1005000021F0888105DF8993F9CFE0913602F091DF
:100510003702208181E090E00090350202C0880F10
:10052000991F0A94E2F7822B808395E39A95F1F75D
:100530000000DF91CF911F910F91FF9008951F92BE
:100540000F920FB60F9211240BB60F922F933F9379
:100550004F935F936F937F938F939F93AF93BF93CB
:10056000CF93EF93FF938091470290914802A0911F
:100570004902B0914A020196A11DB11D8093470224
:1005800090934802A0934902B0934A02C0E0809140
:100590003C02C81760F4EC2FF0E0EE0FFF1FE45CA4
:1005A000FD4F0180F281E02D1995CF5FF0CFFF91D3
:1005B000EF91CF91BF91AF919F918F917F916F916B
:1005C0005F914F913F912F910F900BBE0F900FBEF7
:1005D0000F901F9018951F920F920FB60F92112433
:1005E0000BB60F922F933F934F935F936F937F932D
:1005F0008F939F93AF93BF93EF93FF9392B184E058
:10060000982792B998B1892788B980912D02909145
:100610002E02A0912F02B09130020196A11DB11DB2
:1006200080932D0290932E02A0932F02B09330025C
:1006300080912A02811140C060912D0270912E029A
:1006400080912F02909130022AE030E040E050E0AB
:100650004CD2672B682B692B31F487B5853218F0A3
:1006600087B5815060C087B5843209F078C081E0D9
:1006700080932A0280912D0290912E02A0912F0248
:10068000B0913002BF93AF939F938F9381E192E03B
:100690009F938F9386E192E09F938F9348D260E07F
:1006A00086E192E0CBDE8DB79EB708960FB6F89440
:1006B0009EBF0FBE8DBF53C08130E9F480913102DF
:1006C00090913202A0913302B091340240912D02F8
:1006D00050912E0260912F02709130028854934005
:1006E000A109B109481759076A077B07C0F182E0E1
:1006F00080932A0234C0823091F560912D0270916E
:100700002E0280912F02909130022AE030E040E0EA
:1007100050E0EBD1672B682B692B39F487B588370C
:1007200020F487B58F5F87BD1AC087B58837B9F4C5
:1007300080916E008D7F80936E0014984498109283
:10074000310210923202109233021092340210924F
:100750002D0210922E0210922F0210923002FF9161
:10076000EF91BF91AF919F918F917F916F915F9129
:100770004F913F912F910F900BBE0F900FBE0F9096
:100780001F901895CF93DF93CDB7DEB727970FB69D
:10079000F894DEBF0FBECDBF8CB58D7F8CBD8CB500
:1007A00081608CBD84B1876084B98CB580658CBD57
:1007B000289A1092B90080E28093B80084E8809370
:1007C000BC008BB183608BB985E0F82EF0923802C3
:1007D00087E080932B0296E0E92EE09239028BE0CD
:1007E00091E090933B0280933A0280910A01806EDF
:1007F00080930A0180910B01806480930B010000BB
:10080000000080910B018F7780930B018FE19EE4B4
:100810000197F1F700C00000E0913A02F0913B022D
:10082000208101E010E0C80100902B0202C0880F77
:10083000991F0A94E2F7822B8083EFE3FCE931975A
:10084000F1F700C0000083E2C8DD85E0C6DD83E18A
:10085000C4DD8CEBC2DD82E2C0DD8CE0BEDD81E276
:10086000BCDD81ECBADD60E085E092E0E7DD61E0CF
:100870008BE092E0E3DD81B1856181B987B185616B
:1008800087B987B1876087B981B1866081B981B145
:10089000876081B987B1866087B982E084BD84E0D2
:1008A00085BD85E987BD80913C02E82FF0E0EE0F21
:1008B000FF1FE45CFD4F2EE432E0328321838F5F23
:1008C00080933C02809181008B60809381008091B5
:1008D0006F00826080936F0088E787BD89EF90E0AA
:1008E000909389008093880084E390E0909337028E
:1008F0008093360281E08093350283B3836083BBAB
:10090000A098F5E3FA95F1F70000E0913602F09136
:10091000370280810090350202C0000F111F0A9437
:10092000E2F7082B008325E32A95F1F700008FEF0B
:100930009BE7E2E981509040E040E1F700C0000011
:1009400010922C028E010F5F1F4FF8012F2D119274
:100950002A95E9F78CE08F8341E0BE01695F7F4F04
:1009600080E2A8DD8FE38F8341E0BE01695F7F4FA6
:1009700081E2A0DDFF8241E0BE01695F7F4F83E23B
:1009800099DD8FE58F8341E0BE01695F7F4F84E28F
:1009900091DD8CE68F8341E0BE01695F7F4F85E288
:1009A00089DDEF8241E0BE01695F7F4F86E282DD33
:1009B00080E78E8341E0BE016A5F7F4F87E27ADD88
:1009C00030E0E32E32E0F32E6801D801F701819187
:1009D0008D9382E0E530F807D1F780912C02865F95
:1009E00045E0B801806266DDF70181917F01F60183
:1009F00081936F01F5E0EF16F2E0FF06A9F745E0FD
:100A0000B80180E357DD81E090E000902C0202C045
:100A1000880F991F0A94E2F78F8341E0BE01695F56
:100A20007F4F8CE347DD84E08F8341E0BE01695F47
:100A30007F4F8DE33FDD40E060E070E081EE3ADD26
:100A400040E060E070E082EE35DD41E0BE01695FCC
:100A50007F4F80E02FDD8F8182608F8341E0BE0178
:100A6000695F7F4F80E226DD8FE39CE90197F1F714
:100A700000C0000041E0B80186E01CDD41E0B801A3
:100A800086E218DD65EC89E04FDC61E48AE04CDC4D
:100A900061E08BE049DC80E2A0DC80E89EDC80E461
:100AA0009CDC08EF11E080E068DC01501109D9F707
:100AB0007894149A449A87ED95E1A0E0B0E0809391
:100AC000310290933202A0933302B0933402109219
:100AD0002D0210922E0210922F021092300280915D
:100AE0006E00826080936E00FFCFA1E21A2EAA1BD7
:100AF000BB1BFD010DC0AA1FBB1FEE1FFF1FA217CE
:100B0000B307E407F50720F0A21BB30BE40BF50BCA
:100B1000661F771F881F991F1A9469F76095709553
:100B2000809590959B01AC01BD01CF0108950F9375
:100B30001F93CF93DF93CDB7DEB72E970FB6F89400
:100B4000DEBF0FBECDBF0E891F8986E08C831A835E
:100B500009838FEF9FE79E838D83AE01465E5F4FD3
:100B6000688D798DCE01019610D0EF81F885E00F68
:100B7000F11F10822E960FB6F894DEBF0FBECDBFC8
:100B8000DF91CF911F910F9108952F923F924F9235
:100B90005F926F927F928F929F92AF92BF92CF920D
:100BA000DF92EF92FF920F931F93CF93DF93CDB716
:100BB000DEB72B970FB6F894DEBF0FBECDBF6C012A
:100BC0007B018A01FC0117821682838181FFBFC1EC
:100BD000CE0101963C01F6019381F70193FD8591C9
:100BE00093FF81917F01882309F4ADC1853239F4E7
:100BF00093FD859193FF81917F01853221F4B601A8
:100C000090E0D6D1E8CF912C212C312CFFE1F315C7
:100C1000D8F08B3279F038F4803279F08332A1F455
:100C2000232D20611DC08D3261F0803369F4232DA6
:100C3000216016C0832D8260382EE32DE4603E2EA5
:100C40002AC0F32DF8601DC037FC2DC020ED280F01
:100C50002A3040F08E32B9F436FC75C1232D206461
:100C6000322E19C036FE06C08AE0989E200D11244F
:100C7000922E11C0EAE02E9E200D1124222EF32D7B
:100C8000F0623F2E08C08C3621F4832D8068382E08
:100C900002C0883641F4F70193FD859193FF81915D
:100CA0007F018111B3CF982F9F7D9554933028F405
:100CB0000C5F1F4F9FE399830DC0833631F083375C
:100CC00071F0833509F055C020C0F8018081898317
:100CD0000E5F1F4F88248394912C530112C028016A
:100CE000F2E04F0E511CF801A080B18036FE03C027
:100CF000692D70E002C06FEF7FEFC5014ED14C014E
:100D00008201F32DFF773F2E15C0280122E0420E0D
:100D1000511CF801A080B18036FE03C0692D70E03F
:100D200002C06FEF7FEFC5012DD14C01F32DF068AC
:100D30003F2E820133FC19C0822D90E0881699065F
:100D4000A0F4B60180E290E033D12A94F5CFF5010A
:100D500037FC859137FE81915F01B60190E028D183
:100D600021102A9421E0821A91088114910479F7C4
:100D7000E1C0843611F0893639F5F80137FE07C035
:100D800060817181828193810C5F1F4F08C06081F7
:100D90007181072E000C880B990B0E5F1F4FF32DEE
:100DA000FF763F2E97FF09C09095809570956195CD
:100DB0007F4F8F4F9F4FF0683F2E2AE030E0A30116
:100DC00033D1882E861844C0853731F4232D2F7EE9
:100DD000B22E2AE030E025C0932D997FB92E8F36B0
:100DE000C1F018F4883579F0AEC0803719F0883733
:100DF00021F0A9C0E92FE061BE2EB4FE0DC0FB2D8D
:100E0000F460BF2E09C034FE0AC0292F2660B22E1E
:100E100006C028E030E005C020E130E002C020E15B
:100E200032E0F801B7FE07C0608171818281938151
:100E30000C5F1F4F06C06081718180E090E00E5F03
:100E40001F4FA301F1D0882E8618FB2DFF773F2E70
:100E500036FE0DC0232D2E7FA22E891458F434FEA9
:100E60000BC032FC09C0832D8E7EA82E05C0B82C85
:100E7000A32C03C0B82C01C0B92CA4FE0FC0FE01E6
:100E8000E80DF11D8081803321F49A2D997EA92EE1
:100E900009C0A2FE06C0B394B39404C08A2D86781C
:100EA00009F0B394A3FC10C0A0FE06C0B21480F4F5
:100EB000280C922C9B180DC0B21458F4B60180E295
:100EC00090E076D0B394F8CFB21418F42B1802C087
:100ED000982C212CA4FE0FC0B60180E390E068D0CE
:100EE000A2FE16C0A1FC03C088E790E002C088E51E
:100EF00090E0B6010CC08A2D867851F0A1FE02C0A8
:100F00008BE201C080E2A7FC8DE2B60190E050D0F8
:100F1000891430F4B60180E390E04AD09A94F8CF77
:100F20008A94F301E80DF11D8081B60190E040D074
:100F30008110F6CF222009F44ECEB60180E290E077
:100F400037D02A94F7CFF6018681978102C08FEFC0
:100F50009FEF2B960FB6F894DEBF0FBECDBFDF918B
:100F6000CF911F910F91FF90EF90DF90CF90BF90A6
:100F7000AF909F908F907F906F905F904F903F9039
:100F80002F900895FC010590615070400110D8F732
:100F9000809590958E0F9F1F0895FC0161507040C1
:100FA00001900110D8F7809590958E0F9F1F08959E
:100FB0000F931F93CF93DF93FB01238121FD03C088
:100FC0008FEF9FEF2CC022FF16C0468157812481EE
:100FD00035814217530744F4A081B1819D012F5FF1
:100FE0003F4F318320838C93268137812F5F3F4F82
:100FF0003783268314C08B01EC01FB010084F1854B
:10100000E02D1995892BE1F6D80116968D919C91CA
:101010001797019617969C938E931697CE01DF91A2
:10102000CF911F910F910895FA01AA27283051F10D
:10103000203181F1E8946F936E7F6E5F7F4F8F4F09
:101040009F4FAF4FB1E03ED0B4E03CD0670F781F68
:10105000891F9A1FA11D680F791F8A1F911DA11D4D
:101060006A0F711D811D911DA11D20D009F4689486
:101070003F912AE0269F11243019305D3193DEF62E
:10108000CF010895462F4770405D4193B3E00FD0E4
:10109000C9F7F6CF462F4F70405D4A3318F0495DCF
:1010A00031FD4052419302D0A9F7EACFB4E0A695B2
:1010B0009795879577956795BA95C9F700976105D4
:1010C000710508959B01AC010A2E0694579547952A
:1010D00037952795BA95C9F7620F731F841F951F1F
:0810E000A01D0895F894FFCF54
:1010E800000000000148454C4C4F00574F524C44FB
:0610F80000256C640000FD
:00000001FF
