:1000000055C1000072C1000070C100006EC1000047
:100010006CC100006AC1000068C1000066C1000038
:1000200064C1000062C1000060C100005EC1000048
:100030005CC100005AC1000058C1000056C1000058
:1000400054C1000077C3000050C100004EC1000041
:100050004CC10000BBC3000048C1000046C1000005
:1000600044C1000042C1000040C100003EC1000088
:100070003CC100003AC1000038C1000036C1000098
:1000800034C1000032C1000030C100002EC10000A8
:100090002CC100002AC1000028C1000026C10000B8
:1000A00024C1000022C1000020C100001EC10000C8
:1000B0001CC100001AC1000018C1000016C10000D8
:1000C00014C1000012C1000010C100000EC10000E8
:1000D0000CC100000AC1000008C1000006C10000F8
:1000E00004C10000000000000000005F00000000EC
:1000F000070007147F147F14242A7F2A1223130871
:10010000646236495522500000050300001C22415C
:10011000000041221C0014083E081408083E08088C
:1001200000000050300808080808000030300020A7
:10013000100804023E5149453E00427F400040669F
:1001400051494622414949361814127F1027454526
:1001500045393C4A49493101710905033649494944
:1001600036264949493E0000333300000000563628
:1001700000081422000014141400002214080002C5
:1001800001510906324949513E7E0909097E7F49DC
:100190004949363E414141227F4141221C7F494924
:1001A00049417F090909013E4149493A7F08080848
:1001B0007F41417F41412040413F017F181422414E
:1001C0007F404040407F020C027F7F0204187F3E48
:1001D0004141413E7F090909063E415121DE7F1917
:1001E000294946464949493101017F01013F4040C3
:1001F000403F1F3040301F3F4038403F63140814D9
:100200006303047804036151494543007F41410081
:1002100002040810200041417F001008040810006B
:1002200040404040000305000020545454787F486B
:100230004444383844444420384444487F38545473
:100240005418087E09010218A4A4A47C7F080404A1
:100250007800447D4000004080847D007F10284469
:1002600000417F40007C041804787C08040478383E
:1002700044444438FC1824241818242418FC7C080E
:100280000404084854545420043F4440203C404057
:10029000207C1C2040201C3C4030403C442810283E
:1002A000441CA0A0A07C4464544C440011241FBEF4
:1002B000CFEFD1E2DEBFCDBF00E00CBF12E0A0E087
:1002C000B2E0E2E3F1E100E00BBF02C007900D9263
:1002D000A831B107D9F722E0A8E1B2E001C01D9230
:1002E000AD34B207E1F787D222C78ACE8EBD0000B7
:1002F000000000000DB407FEFDCF0000000000006C
:100300008EB508950F931F93CF93DF93C0914B0247
:10031000D0914C02988121E030E0890100904A029E
:1003200002C0000F111F0A94E2F7402F409594235A
:1003300098830000000098810090490202C0220FBB
:10034000331F0A94E2F72095292328830000000038
:10035000CDDF8881082B088300000000DF91CF915A
:100360001F910F9108959F92AF92BF92CF92DF920B
:10037000EF92FF920F931F93CF93DF93EC01162F11
:1003800080E2C0DF80E8BEDF812F8064BBDF85E0D4
:10039000982EEE24E394F12C8881882309F43FC041
:1003A00000E010E0888190E08097989EF001999E8F
:1003B000F00D1124E00FF11FEC51FF4F8491C0901C
:1003C0004B02D0904C02F6019081570100904A02F6
:1003D00002C0AA0CBB1C0A94E2F72A2D2095922396
:1003E000908300000000908197010090490202C0B4
:1003F000220F331F0A94E2F7292B2083000000000C
:1004000075DFF6018081A82AA082000000000F5F3E
:100410001F4F0530110509F0C5CF2196BDCFDF91E3
:10042000CF911F910F91FF90EF90DF90CF90BF90F1
:10043000AF909F9008952FB7F89460914502709106
:10044000460280914702909148022FBF2AE030E097
:1004500040E050E06FD3672B682B692BC1F580918A
:10046000330290911802891761F197B5983718F403
:1004700087B58F5F2BC08230B1F028F48823E1F07C
:10048000813031F00895833091F0843029F008955F
:10049000149A449A10980EC0149A449A109A409A4A
:1004A000809318020895149A449A1098F8CF149AD9
:1004B000449A109A4098F4CF1498449810921802D5
:1004C000089587B5853218F087B5815087BD0895A6
:1004D000FF920F931F93CF93DF93F62E072F142FC6
:1004E000E0913802F0913902908121E030E00090F3
:1004F000370202C0220F331F0A94E2F72095292306
:10050000208395E39A95F1F70000F0DECF2DD02FF0
:10051000CE01810F911D8C01C017D10721F0888178
:10052000E5DE8993F9CFE0913802F091390220811C
:1005300081E090E00090370202C0880F991F0A9472
:10054000E2F7822B808395E39A95F1F70000DF9123
:10055000CF911F910F91FF900895CF92DF92EF926C
:10056000FF928FB7F894C0904502D0904602E09079
:100570004702F09048028FBFC701B60128EB3BE06D
:1005800040E050E0D7D2672B682B692BE9F4FF924B
:10059000EF92DF92CF9285E092E09F938F9389E173
:1005A00092E09F938F93E8D28DB79EB708960FB6CF
:1005B000F8949EBF0FBE8DBF62E089E192E0FF908C
:1005C000EF90DF90CF90CFCEFF90EF90DF90CF9065
:1005D00008950F931F93CF93DF931F92CDB7DEB78C
:1005E000809135028823D1F11092350201E010E0AC
:1005F000C8010090360202C0880F991F0A94E2F7E2
:10060000898341E0BE016F5F7F4F82E261DF41E09D
:10061000BE016F5F7F4F80E05BDF898181608983EE
:1006200041E0BE016F5F7F4F80E252DFE091380210
:10063000F091390280810090340202C0000F111F36
:100640000A94E2F7082B008385E38A95F1F700000E
:1006500087E092E00197F1F700C00000198241E0C5
:10066000BE016F5F7F4F87E033DF898186FF5CC00B
:1006700080E7898341E0BE016F5F7F4F87E228DF1B
:10068000198241E0BE016F5F7F4F82E221DFE0917E
:100690003802F0913902208181E090E0009034022C
:1006A00002C0880F991F0A94E2F780958223808305
:1006B00095E39A95F1F7000081E080933502198265
:1006C00041E0BE016F5F7F4F80E602DF49816DE24E
:1006D00072E081E6FDDE80912D021F928F9389E00A
:1006E00092E09F938F9389E192E09F938F9344D2FE
:1006F00080912D020F900F900F900F900F900F9000
:10070000813019F0823021F484E0809333020CC0F0
:10071000843011F482E0F9CF883011F483E0F5CF12
:10072000803111F4109233020F90DF91CF911F911D
:100730000F9108951F920F920FB60F9211240BB6CE
:100740000F922F933F934F935F936F937F938F936A
:100750009F93AF93BF93CF93EF93FF938091450205
:1007600090914602A0914702B09148020196A11DC6
:10077000B11D8093450290934602A0934702B09327
:100780004802C0E080913A02C81760F4EC2FF0E014
:10079000EE0FFF1FE65CFD4F0180F281E02D199501
:1007A000CF5FF0CFFF91EF91CF91BF91AF919F912C
:1007B0008F917F916F915F914F913F912F910F900A
:1007C0000BBE0F900FBE0F901F9018951F920F92A7
:1007D0000FB60F9211248F939F9392B184E09827C4
:1007E00092B998B1892788B99F918F910F900FBEC8
:1007F0000F901F901895CF93DF93CDB7DEB7279753
:100800000FB6F894DEBF0FBECDBF8CB58D7F8CBD0B
:100810008CB581608CBD84B1876084B98CB58065EE
:100820008CBD289A85E0F82EF092490287E08093EB
:10083000320296E0E92EE0924A028BE091E090933A
:100840004C0280934B0280910A01806E80930A01D2
:1008500080910B01806480930B0100000000809167
:100860000B018F7780930B018FE19EE40197F1F7E5
:1008700000C00000E0914B02F0914C02208101E0A9
:1008800010E0C8010090320202C0880F991F0A943C
:10089000E2F7822B8083EFE3FCE93197F1F700C0A8
:1008A000000083E22FDD85E02DDD83E12BDD8CEB85
:1008B00029DD82E227DD8CE025DD81E223DD81EC8C
:1008C00021DD60E08CE092E04EDD61E082E192E0CB
:1008D0004ADD81B1856181B987B1856187B987B109
:1008E000876087B981B1866081B981B1876081B93C
:1008F00087B1866087B982E084BD84E085BD809140
:100900006E00826080936E0085E987BD80913A0217
:10091000E82FF0E0EE0FFF1FE65CFD4F2BE132E029
:10092000328321838F5F80933A0210923302809149
:1009300081008B608093810080916F008260809342
:100940006F0088E787BD89EF90E0909389008093DE
:1009500088001092330280913A02E82FF0E0EE0F07
:10096000FF1FE65CFD4F2DEA32E032832183E1E098
:10097000E80FF0E0EE0FFF1FE65CFD4F29EE32E0DE
:10098000328321838E5F80933A0284E390E09093D8
:100990003902809338021092340281E0809337024A
:1009A00083B3836083BBA098F5E3FA95F1F7000069
:1009B000E0913802F091390280810090370202C044
:1009C000000F111F0A94E2F7082B008325E32A95F4
:1009D000F1F700008FEF9BE7E2E981509040E040A3
:1009E000E1F700C00000109236028E010F5F1F4F2A
:1009F000F8012F2D11922A95E9F78CE08F8341E0C1
:100A0000BE01695F7F4F80E263DD8FE38F8341E04A
:100A1000BE01695F7F4F81E25BDDFF8241E0BE0185
:100A2000695F7F4F83E254DD8FE58F8341E0BE0134
:100A3000695F7F4F84E24CDD8CE68F8341E0BE012D
:100A4000695F7F4F85E244DDEF8241E0BE01695F6F
:100A50007F4F86E23DDD80E78E8341E0BE016A5F25
:100A60007F4F87E235DD50E0E52E52E0F52E68013C
:100A7000D801F70181918D9382E0E530F807D1F735
:100A800080913602865F45E0B801806221DDF70182
:100A900081917F01F60181936F01F5E0EF16F2E09D
:100AA000FF06A9F745E0B80180E312DD81E090E0A0
:100AB0000090360202C0880F991F0A94E2F78F83D4
:100AC00041E0BE01695F7F4F8CE302DD84E08F83EC
:100AD00041E0BE01695F7F4F8DE3FADC40E060E0FA
:100AE00070E081EEF5DC40E060E070E082EEF0DC8A
:100AF00041E0BE01695F7F4F80E0EADC8F81826068
:100B00008F8341E0BE01695F7F4F80E2E1DC8FE3CC
:100B10009CE90197F1F700C0000081E08093350265
:100B200041E0B80186E0D4DC41E0B80186E2D0DCE7
:100B30007894FFCFA1E21A2EAA1BBB1BFD010DC0AA
:100B4000AA1FBB1FEE1FFF1FA217B307E407F5077D
:100B500020F0A21BB30BE40BF50B661F771F881F59
:100B6000991F1A9469F760957095809590959B01EF
:100B7000AC01BD01CF0108950F931F93CF93DF9375
:100B8000CDB7DEB72E970FB6F894DEBF0FBECDBF40
:100B90000E891F8986E08C831A8309838FEF9FE774
:100BA0009E838D83AE01465E5F4F688D798DCE0149
:100BB000019610D0EF81F885E00FF11F10822E967C
:100BC0000FB6F894DEBF0FBECDBFDF91CF911F915E
:100BD0000F9108952F923F924F925F926F927F9262
:100BE0008F929F92AF92BF92CF92DF92EF92FF923D
:100BF0000F931F93CF93DF93CDB7DEB72B970FB62D
:100C0000F894DEBF0FBECDBF6C017B018A01FC01F1
:100C100017821682838181FFBFC1CE0101963C01FC
:100C2000F6019381F70193FD859193FF81917F01F7
:100C3000882309F4ADC1853239F493FD859193FF82
:100C400081917F01853221F4B60190E0D6D1E8CFC1
:100C5000912C212C312CFFE1F315D8F08B3279F057
:100C600038F4803279F08332A1F4232D20611DC045
:100C70008D3261F0803369F4232D216016C0832DFD
:100C80008260382EE32DE4603E2E2AC0F32DF860FA
:100C90001DC037FC2DC020ED280F2A3040F08E32C9
:100CA000B9F436FC75C1232D2064322E19C036FEEE
:100CB00006C08AE0989E200D1124922E11C0EAE011
:100CC0002E9E200D1124222EF32DF0623F2E08C0FF
:100CD0008C3621F4832D8068382E02C0883641F48A
:100CE000F70193FD859193FF81917F018111B3CF2E
:100CF000982F9F7D9554933028F40C5F1F4F9FE3EE
:100D000099830DC0833631F0833771F0833509F054
:100D100055C020C0F801808189830E5F1F4F882451
:100D20008394912C530112C02801F2E04F0E511C04
:100D3000F801A080B18036FE03C0692D70E002C0CA
:100D40006FEF7FEFC5014ED14C018201F32DFF778C
:100D50003F2E15C0280122E0420E511CF801A08050
:100D6000B18036FE03C0692D70E002C06FEF7FEFE7
:100D7000C5012DD14C01F32DF0683F2E820133FCCB
:100D800019C0822D90E088169906A0F4B60180E281
:100D900090E033D12A94F5CFF50137FC859137FEE9
:100DA00081915F01B60190E028D121102A9421E0C1
:100DB000821A91088114910479F7E1C0843611F008
:100DC000893639F5F80137FE07C06081718182816B
:100DD00093810C5F1F4F08C060817181072E000C4A
:100DE000880B990B0E5F1F4FF32DFF763F2E97FF59
:100DF00009C090958095709561957F4F8F4F9F4F5B
:100E0000F0683F2E2AE030E0A30133D1882E861807
:100E100044C0853731F4232D2F7EB22E2AE030E0F6
:100E200025C0932D997FB92E8F36C1F018F48835DF
:100E300079F0AEC0803719F0883721F0A9C0E92FCA
:100E4000E061BE2EB4FE0DC0FB2DF460BF2E09C0C4
:100E500034FE0AC0292F2660B22E06C028E030E0FA
:100E600005C020E130E002C020E132E0F801B7FE29
:100E700007C060817181828193810C5F1F4F06C022
:100E80006081718180E090E00E5F1F4FA301F1D07F
:100E9000882E8618FB2DFF773F2E36FE0DC0232DA2
:100EA0002E7FA22E891458F434FE0BC032FC09C0E8
:100EB000832D8E7EA82E05C0B82CA32C03C0B82C81
:100EC00001C0B92CA4FE0FC0FE01E80DF11D808108
:100ED000803321F49A2D997EA92E09C0A2FE06C066
:100EE000B394B39404C08A2D867809F0B394A3FC1C
:100EF00010C0A0FE06C0B21480F4280C922C9B18DF
:100F00000DC0B21458F4B60180E290E076D0B394EC
:100F1000F8CFB21418F42B1802C0982C212CA4FE80
:100F20000FC0B60180E390E068D0A2FE16C0A1FC1D
:100F300003C088E790E002C088E590E0B6010CC0ED
:100F40008A2D867851F0A1FE02C08BE201C080E2BA
:100F5000A7FC8DE2B60190E050D0891430F4B601C0
:100F600080E390E04AD09A94F8CF8A94F301E80D98
:100F7000F11D8081B60190E040D08110F6CF222093
:100F800009F44ECEB60180E290E037D02A94F7CF34
:100F9000F6018681978102C08FEF9FEF2B960FB6E7
:100FA000F894DEBF0FBECDBFDF91CF911F910F919F
:100FB000FF90EF90DF90CF90BF90AF909F908F9079
:100FC0007F906F905F904F903F902F900895FC011D
:100FD0000590615070400110D8F7809590958E0F64
:100FE0009F1F0895FC016150704001900110D8F7D7
:100FF000809590958E0F9F1F08950F931F93CF9309
:10100000DF93FB01238121FD03C08FEF9FEF2CC0F5
:1010100022FF16C04681578124813581421753072C
:1010200044F4A081B1819D012F5F3F4F3183208324
:101030008C93268137812F5F3F4F3783268314C0DF
:101040008B01EC01FB010084F185E02D1995892BC2
:10105000E1F6D80116968D919C91179701961796F7
:101060009C938E931697CE01DF91CF911F910F9194
:101070000895FA01AA27283051F1203181F1E8942E
:101080006F936E7F6E5F7F4F8F4F9F4FAF4FB1E07B
:101090003ED0B4E03CD0670F781F891F9A1FA11D76
:1010A000680F791F8A1F911DA11D6A0F711D811D77
:1010B000911DA11D20D009F468943F912AE0269F3C
:1010C00011243019305D3193DEF6CF010895462F9B
:1010D0004770405D4193B3E00FD0C9F7F6CF462F7C
:1010E0004F70405D4A3318F0495D31FD40524193E5
:1010F00002D0A9F7EACFB4E0A695979587957795A2
:101100006795BA95C9F700976105710508959B0128
:10111000AC010A2E06945795479537952795BA95B1
:10112000C9F7620F731F841F951FA01D0895F894BF
:02113000FFCFEF
:101132000000000001256C640025640048454C4C09
:081142004F00574F524C4400CE
:00000001FF
